{
  "abi": [
    {
      "anonymous": false,
      "inputs": [
        {
          "indexed": true,
          "internalType": "bytes32",
          "name": "imageHash",
          "type": "bytes32"
        },
        {
          "indexed": false,
          "internalType": "string",
          "name": "ipfsHash",
          "type": "string"
        },
        {
          "indexed": false,
          "internalType": "address",
          "name": "registrar",
          "type": "address"
        }
      ],
      "name": "ImageRegistered",
      "type": "event"
    },
    {
      "inputs": [
        {
          "internalType": "bytes32",
          "name": "imageHash",
          "type": "bytes32"
        }
      ],
      "name": "getIPFSHash",
      "outputs": [
        {
          "internalType": "string",
          "name": "",
          "type": "string"
        }
      ],
      "stateMutability": "view",
      "type": "function"
    },
    {
      "inputs": [
        {
          "internalType": "bytes32",
          "name": "imageHash",
          "type": "bytes32"
        }
      ],
      "name": "getImageRegistrar",
      "outputs": [
        {
          "internalType": "address",
          "name": "",
          "type": "address"
        }
      ],
      "stateMutability": "view",
      "type": "function"
    },
    {
      "inputs": [
        {
          "internalType": "bytes32",
          "name": "imageHash",
          "type": "bytes32"
        },
        {
          "internalType": "bytes",
          "name": "signature",
          "type": "bytes"
        }
      ],
      "name": "recoverSigner",
      "outputs": [
        {
          "internalType": "address",
          "name": "",
          "type": "address"
        }
      ],
      "stateMutability": "pure",
      "type": "function"
    },
    {
      "inputs": [
        {
          "internalType": "bytes32",
          "name": "imageHash",
          "type": "bytes32"
        },
        {
          "internalType": "string",
          "name": "ipfsHash",
          "type": "string"
        },
        {
          "internalType": "bytes",
          "name": "signature",
          "type": "bytes"
        }
      ],
      "name": "registerImage",
      "outputs": [],
      "stateMutability": "nonpayable",
      "type": "function"
    },
    {
      "inputs": [
        {
          "internalType": "address",
          "name": "signer",
          "type": "address"
        },
        {
          "internalType": "bytes32",
          "name": "imageHash",
          "type": "bytes32"
        },
        {
          "internalType": "bytes",
          "name": "signature",
          "type": "bytes"
        }
      ],
      "name": "verify",
      "outputs": [
        {
          "internalType": "bool",
          "name": "",
          "type": "bool"
        }
      ],
      "stateMutability": "pure",
      "type": "function"
    }
  ],
  "devdoc": {
    "kind": "dev",
    "methods": {},
    "version": 1
  },
  "evm": {
    "assembly": "    /* \"imageRegistrary.sol\":57:3199  contract ImageRegistry {... */\n  mstore(0x40, 0x80)\n  callvalue\n  dup1\n  iszero\n  tag_1\n  jumpi\n  0x00\n  dup1\n  revert\ntag_1:\n  pop\n  dataSize(sub_0)\n  dup1\n  dataOffset(sub_0)\n  0x00\n  codecopy\n  0x00\n  return\nstop\n\nsub_0: assembly {\n        /* \"imageRegistrary.sol\":57:3199  contract ImageRegistry {... */\n      mstore(0x40, 0x80)\n      callvalue\n      dup1\n      iszero\n      tag_1\n      jumpi\n      0x00\n      dup1\n      revert\n    tag_1:\n      pop\n      jumpi(tag_2, lt(calldatasize, 0x04))\n      shr(0xe0, calldataload(0x00))\n      dup1\n      0x9241ef21\n      gt\n      tag_8\n      jumpi\n      dup1\n      0x9241ef21\n      eq\n      tag_5\n      jumpi\n      dup1\n      0x9523597d\n      eq\n      tag_6\n      jumpi\n      dup1\n      0x97aba7f9\n      eq\n      tag_7\n      jumpi\n      0x00\n      dup1\n      revert\n    tag_8:\n      dup1\n      0x1a86b550\n      eq\n      tag_3\n      jumpi\n      dup1\n      0x2ed5ef14\n      eq\n      tag_4\n      jumpi\n    tag_2:\n      0x00\n      dup1\n      revert\n        /* \"imageRegistrary.sol\":834:1005  function verify(address signer, bytes32 imageHash, bytes memory signature) public pure returns (bool) {... */\n    tag_3:\n      tag_9\n      tag_10\n      calldatasize\n      0x04\n      tag_11\n      jump\t// in\n    tag_10:\n      tag_12\n      jump\t// in\n    tag_9:\n      mload(0x40)\n        /* \"#utility.yul\":1762:1776   */\n      swap1\n      iszero\n        /* \"#utility.yul\":1755:1777   */\n      iszero\n        /* \"#utility.yul\":1737:1778   */\n      dup2\n      mstore\n        /* \"#utility.yul\":1725:1727   */\n      0x20\n        /* \"#utility.yul\":1710:1728   */\n      add\n        /* \"imageRegistrary.sol\":834:1005  function verify(address signer, bytes32 imageHash, bytes memory signature) public pure returns (bool) {... */\n    tag_13:\n      mload(0x40)\n      dup1\n      swap2\n      sub\n      swap1\n      return\n        /* \"imageRegistrary.sol\":2866:2999  function getIPFSHash(bytes32 imageHash) public view returns (string memory) {... */\n    tag_4:\n      tag_15\n      tag_16\n      calldatasize\n      0x04\n      tag_17\n      jump\t// in\n    tag_16:\n      tag_18\n      jump\t// in\n    tag_15:\n      mload(0x40)\n      tag_13\n      swap2\n      swap1\n      tag_20\n      jump\t// in\n        /* \"imageRegistrary.sol\":2300:2801  function registerImage(bytes32 imageHash, string memory ipfsHash, bytes memory signature) public {... */\n    tag_5:\n      tag_21\n      tag_22\n      calldatasize\n      0x04\n      tag_23\n      jump\t// in\n    tag_22:\n      tag_24\n      jump\t// in\n    tag_21:\n      stop\n        /* \"imageRegistrary.sol\":3063:3197  function getImageRegistrar(bytes32 imageHash) public view returns (address) {... */\n    tag_6:\n      tag_25\n      tag_26\n      calldatasize\n      0x04\n      tag_17\n      jump\t// in\n    tag_26:\n        /* \"imageRegistrary.sol\":3130:3137  address */\n      0x00\n        /* \"imageRegistrary.sol\":3156:3180  imageRegistry[imageHash] */\n      swap1\n      dup2\n      mstore\n      0x20\n      dup2\n      swap1\n      mstore\n      0x40\n      swap1\n      keccak256\n        /* \"imageRegistrary.sol\":3156:3190  imageRegistry[imageHash].registrar */\n      0x01\n      add\n      sload\n      sub(shl(0xa0, 0x01), 0x01)\n      and\n      swap1\n        /* \"imageRegistrary.sol\":3063:3197  function getImageRegistrar(bytes32 imageHash) public view returns (address) {... */\n      jump\n    tag_25:\n      mload(0x40)\n      sub(shl(0xa0, 0x01), 0x01)\n        /* \"#utility.yul\":3533:3588   */\n      swap1\n      swap2\n      and\n        /* \"#utility.yul\":3515:3589   */\n      dup2\n      mstore\n        /* \"#utility.yul\":3503:3505   */\n      0x20\n        /* \"#utility.yul\":3488:3506   */\n      add\n        /* \"imageRegistrary.sol\":3063:3197  function getImageRegistrar(bytes32 imageHash) public view returns (address) {... */\n      tag_13\n        /* \"#utility.yul\":3369:3595   */\n      jump\n        /* \"imageRegistrary.sol\":523:758  function recoverSigner(bytes32 imageHash, bytes memory signature) public pure returns (address) {... */\n    tag_7:\n      tag_25\n      tag_31\n      calldatasize\n      0x04\n      tag_32\n      jump\t// in\n    tag_31:\n      tag_33\n      jump\t// in\n        /* \"imageRegistrary.sol\":834:1005  function verify(address signer, bytes32 imageHash, bytes memory signature) public pure returns (bool) {... */\n    tag_12:\n        /* \"imageRegistrary.sol\":930:934  bool */\n      0x00\n        /* \"imageRegistrary.sol\":992:998  signer */\n      dup4\n      sub(shl(0xa0, 0x01), 0x01)\n        /* \"imageRegistrary.sol\":953:998  recoverSigner(imageHash, signature) == signer */\n      and\n        /* \"imageRegistrary.sol\":953:988  recoverSigner(imageHash, signature) */\n      tag_36\n        /* \"imageRegistrary.sol\":967:976  imageHash */\n      dup5\n        /* \"imageRegistrary.sol\":978:987  signature */\n      dup5\n        /* \"imageRegistrary.sol\":953:966  recoverSigner */\n      tag_33\n        /* \"imageRegistrary.sol\":953:988  recoverSigner(imageHash, signature) */\n      jump\t// in\n    tag_36:\n      sub(shl(0xa0, 0x01), 0x01)\n        /* \"imageRegistrary.sol\":953:998  recoverSigner(imageHash, signature) == signer */\n      and\n      eq\n      swap5\n        /* \"imageRegistrary.sol\":834:1005  function verify(address signer, bytes32 imageHash, bytes memory signature) public pure returns (bool) {... */\n      swap4\n      pop\n      pop\n      pop\n      pop\n      jump\t// out\n        /* \"imageRegistrary.sol\":2866:2999  function getIPFSHash(bytes32 imageHash) public view returns (string memory) {... */\n    tag_18:\n        /* \"imageRegistrary.sol\":2959:2972  imageRegistry */\n      0x00\n        /* \"imageRegistrary.sol\":2959:2983  imageRegistry[imageHash] */\n      dup2\n      dup2\n      mstore\n      0x20\n      dup2\n      swap1\n      mstore\n      0x40\n      swap1\n      keccak256\n        /* \"imageRegistrary.sol\":2952:2992  return imageRegistry[imageHash].ipfsHash */\n      dup1\n      sload\n        /* \"imageRegistrary.sol\":2927:2940  string memory */\n      0x60\n      swap2\n        /* \"imageRegistrary.sol\":2959:2983  imageRegistry[imageHash] */\n      swap1\n        /* \"imageRegistrary.sol\":2952:2992  return imageRegistry[imageHash].ipfsHash */\n      tag_38\n      swap1\n      tag_39\n      jump\t// in\n    tag_38:\n      dup1\n      0x1f\n      add\n      0x20\n      dup1\n      swap2\n      div\n      mul\n      0x20\n      add\n      mload(0x40)\n      swap1\n      dup2\n      add\n      0x40\n      mstore\n      dup1\n      swap3\n      swap2\n      swap1\n      dup2\n      dup2\n      mstore\n      0x20\n      add\n      dup3\n      dup1\n      sload\n      tag_40\n      swap1\n      tag_39\n      jump\t// in\n    tag_40:\n      dup1\n      iszero\n      tag_41\n      jumpi\n      dup1\n      0x1f\n      lt\n      tag_42\n      jumpi\n      0x0100\n      dup1\n      dup4\n      sload\n      div\n      mul\n      dup4\n      mstore\n      swap2\n      0x20\n      add\n      swap2\n      jump(tag_41)\n    tag_42:\n      dup3\n      add\n      swap2\n      swap1\n      0x00\n      mstore\n      keccak256(0x00, 0x20)\n      swap1\n    tag_43:\n      dup2\n      sload\n      dup2\n      mstore\n      swap1\n      0x01\n      add\n      swap1\n      0x20\n      add\n      dup1\n      dup4\n      gt\n      tag_43\n      jumpi\n      dup3\n      swap1\n      sub\n      0x1f\n      and\n      dup3\n      add\n      swap2\n    tag_41:\n      pop\n      pop\n      pop\n      pop\n      pop\n      swap1\n      pop\n        /* \"imageRegistrary.sol\":2866:2999  function getIPFSHash(bytes32 imageHash) public view returns (string memory) {... */\n      swap2\n      swap1\n      pop\n      jump\t// out\n        /* \"imageRegistrary.sol\":2300:2801  function registerImage(bytes32 imageHash, string memory ipfsHash, bytes memory signature) public {... */\n    tag_24:\n        /* \"imageRegistrary.sol\":2463:2503  verify(msg.sender, imageHash, signature) */\n      tag_45\n        /* \"imageRegistrary.sol\":2470:2480  msg.sender */\n      caller\n        /* \"imageRegistrary.sol\":2482:2491  imageHash */\n      dup5\n        /* \"imageRegistrary.sol\":2493:2502  signature */\n      dup4\n        /* \"imageRegistrary.sol\":2463:2469  verify */\n      tag_12\n        /* \"imageRegistrary.sol\":2463:2503  verify(msg.sender, imageHash, signature) */\n      jump\t// in\n    tag_45:\n        /* \"imageRegistrary.sol\":2455:2537  require(verify(msg.sender, imageHash, signature), \"Signature verification failed\") */\n      tag_46\n      jumpi\n      mload(0x40)\n      shl(0xe5, 0x461bcd)\n      dup2\n      mstore\n        /* \"#utility.yul\":4580:4582   */\n      0x20\n        /* \"imageRegistrary.sol\":2455:2537  require(verify(msg.sender, imageHash, signature), \"Signature verification failed\") */\n      0x04\n      dup3\n      add\n        /* \"#utility.yul\":4562:4583   */\n      mstore\n        /* \"#utility.yul\":4619:4621   */\n      0x1d\n        /* \"#utility.yul\":4599:4617   */\n      0x24\n      dup3\n      add\n        /* \"#utility.yul\":4592:4622   */\n      mstore\n        /* \"#utility.yul\":4658:4689   */\n      0x5369676e617475726520766572696669636174696f6e206661696c6564000000\n        /* \"#utility.yul\":4638:4656   */\n      0x44\n      dup3\n      add\n        /* \"#utility.yul\":4631:4690   */\n      mstore\n        /* \"#utility.yul\":4707:4725   */\n      0x64\n      add\n        /* \"imageRegistrary.sol\":2455:2537  require(verify(msg.sender, imageHash, signature), \"Signature verification failed\") */\n    tag_47:\n      mload(0x40)\n      dup1\n      swap2\n      sub\n      swap1\n      revert\n    tag_46:\n        /* \"imageRegistrary.sol\":2601:2602  0 */\n      0x00\n        /* \"imageRegistrary.sol\":2555:2579  imageRegistry[imageHash] */\n      dup4\n      dup2\n      mstore\n      0x20\n      dup2\n      swap1\n      mstore\n      0x40\n      swap1\n      keccak256\n        /* \"imageRegistrary.sol\":2555:2589  imageRegistry[imageHash].registrar */\n      0x01\n      add\n      sload\n      sub(shl(0xa0, 0x01), 0x01)\n      and\n        /* \"imageRegistrary.sol\":2555:2603  imageRegistry[imageHash].registrar == address(0) */\n      iszero\n        /* \"imageRegistrary.sol\":2547:2632  require(imageRegistry[imageHash].registrar == address(0), \"Image already registered\") */\n      tag_49\n      jumpi\n      mload(0x40)\n      shl(0xe5, 0x461bcd)\n      dup2\n      mstore\n        /* \"#utility.yul\":4938:4940   */\n      0x20\n        /* \"imageRegistrary.sol\":2547:2632  require(imageRegistry[imageHash].registrar == address(0), \"Image already registered\") */\n      0x04\n      dup3\n      add\n        /* \"#utility.yul\":4920:4941   */\n      mstore\n        /* \"#utility.yul\":4977:4979   */\n      0x18\n        /* \"#utility.yul\":4957:4975   */\n      0x24\n      dup3\n      add\n        /* \"#utility.yul\":4950:4980   */\n      mstore\n        /* \"#utility.yul\":5016:5042   */\n      0x496d61676520616c726561647920726567697374657265640000000000000000\n        /* \"#utility.yul\":4996:5014   */\n      0x44\n      dup3\n      add\n        /* \"#utility.yul\":4989:5043   */\n      mstore\n        /* \"#utility.yul\":5060:5078   */\n      0x64\n      add\n        /* \"imageRegistrary.sol\":2547:2632  require(imageRegistry[imageHash].registrar == address(0), \"Image already registered\") */\n      tag_47\n        /* \"#utility.yul\":4736:5084   */\n      jump\n        /* \"imageRegistrary.sol\":2547:2632  require(imageRegistry[imageHash].registrar == address(0), \"Image already registered\") */\n    tag_49:\n        /* \"imageRegistrary.sol\":2700:2731  ImageData(ipfsHash, msg.sender) */\n      0x40\n      dup1\n      mload\n      dup1\n      dup3\n      add\n      dup3\n      mstore\n      dup4\n      dup2\n      mstore\n        /* \"imageRegistrary.sol\":2720:2730  msg.sender */\n      caller\n        /* \"imageRegistrary.sol\":2700:2731  ImageData(ipfsHash, msg.sender) */\n      0x20\n      dup1\n      dup4\n      add\n      swap2\n      swap1\n      swap2\n      mstore\n      0x00\n        /* \"imageRegistrary.sol\":2673:2697  imageRegistry[imageHash] */\n      dup7\n      dup2\n      mstore\n      swap1\n      dup2\n      swap1\n      mstore\n      swap2\n      swap1\n      swap2\n      keccak256\n        /* \"imageRegistrary.sol\":2673:2731  imageRegistry[imageHash] = ImageData(ipfsHash, msg.sender) */\n      dup2\n      mload\n        /* \"imageRegistrary.sol\":2673:2697  imageRegistry[imageHash] */\n      dup2\n      swap1\n        /* \"imageRegistrary.sol\":2673:2731  imageRegistry[imageHash] = ImageData(ipfsHash, msg.sender) */\n      tag_52\n      swap1\n        /* \"imageRegistrary.sol\":2673:2697  imageRegistry[imageHash] */\n      dup3\n        /* \"imageRegistrary.sol\":2673:2731  imageRegistry[imageHash] = ImageData(ipfsHash, msg.sender) */\n      tag_53\n      jump\t// in\n    tag_52:\n      pop\n      0x20\n      swap2\n      swap1\n      swap2\n      add\n      mload\n      0x01\n      swap1\n      swap2\n      add\n      dup1\n      sload\n      0xffffffffffffffffffffffff0000000000000000000000000000000000000000\n      and\n      sub(shl(0xa0, 0x01), 0x01)\n      swap1\n      swap3\n      and\n      swap2\n      swap1\n      swap2\n      or\n      swap1\n      sstore\n        /* \"imageRegistrary.sol\":2746:2794  ImageRegistered(imageHash, ipfsHash, msg.sender) */\n      mload(0x40)\n        /* \"imageRegistrary.sol\":2762:2771  imageHash */\n      dup4\n      swap1\n        /* \"imageRegistrary.sol\":2746:2794  ImageRegistered(imageHash, ipfsHash, msg.sender) */\n      0xdd83f6763b0a3f7fe47784c369e552cce819efeec4e7c97b5e0629ce41f11288\n      swap1\n      tag_54\n      swap1\n        /* \"imageRegistrary.sol\":2773:2781  ipfsHash */\n      dup6\n      swap1\n        /* \"imageRegistrary.sol\":2783:2793  msg.sender */\n      caller\n      swap1\n        /* \"imageRegistrary.sol\":2746:2794  ImageRegistered(imageHash, ipfsHash, msg.sender) */\n      tag_55\n      jump\t// in\n    tag_54:\n      mload(0x40)\n      dup1\n      swap2\n      sub\n      swap1\n      log2\n        /* \"imageRegistrary.sol\":2300:2801  function registerImage(bytes32 imageHash, string memory ipfsHash, bytes memory signature) public {... */\n      pop\n      pop\n      pop\n      jump\t// out\n        /* \"imageRegistrary.sol\":523:758  function recoverSigner(bytes32 imageHash, bytes memory signature) public pure returns (address) {... */\n    tag_33:\n        /* \"imageRegistrary.sol\":610:617  address */\n      0x00\n        /* \"imageRegistrary.sol\":629:657  bytes32 ethSignedMessageHash */\n      dup1\n        /* \"imageRegistrary.sol\":660:694  getEthSignedMessageHash(imageHash) */\n      tag_58\n        /* \"imageRegistrary.sol\":684:693  imageHash */\n      dup5\n        /* \"imageRegistrary.sol\":1266:1332  abi.encodePacked(\"\\x19Ethereum Signed Message:\\n32\", _messageHash) */\n      mload(0x40)\n        /* \"#utility.yul\":7880:7946   */\n      0x19457468657265756d205369676e6564204d6573736167653a0a333200000000\n        /* \"imageRegistrary.sol\":1266:1332  abi.encodePacked(\"\\x19Ethereum Signed Message:\\n32\", _messageHash) */\n      0x20\n      dup3\n      add\n        /* \"#utility.yul\":7868:7947   */\n      mstore\n        /* \"#utility.yul\":7963:7975   */\n      0x3c\n      dup2\n      add\n        /* \"#utility.yul\":7956:7984   */\n      dup3\n      swap1\n      mstore\n        /* \"imageRegistrary.sol\":1156:1163  bytes32 */\n      0x00\n      swap1\n        /* \"#utility.yul\":8000:8012   */\n      0x5c\n      add\n        /* \"imageRegistrary.sol\":1266:1332  abi.encodePacked(\"\\x19Ethereum Signed Message:\\n32\", _messageHash) */\n      mload(0x40)\n      0x20\n      dup2\n      dup4\n      sub\n      sub\n      dup2\n      mstore\n      swap1\n      0x40\n      mstore\n        /* \"imageRegistrary.sol\":1256:1333  keccak256(abi.encodePacked(\"\\x19Ethereum Signed Message:\\n32\", _messageHash)) */\n      dup1\n      mload\n      swap1\n      0x20\n      add\n      keccak256\n        /* \"imageRegistrary.sol\":1249:1333  return keccak256(abi.encodePacked(\"\\x19Ethereum Signed Message:\\n32\", _messageHash)) */\n      swap1\n      pop\n        /* \"imageRegistrary.sol\":1078:1340  function getEthSignedMessageHash(bytes32 _messageHash) internal pure returns (bytes32) {... */\n      swap2\n      swap1\n      pop\n      jump\n        /* \"imageRegistrary.sol\":660:694  getEthSignedMessageHash(imageHash) */\n    tag_58:\n        /* \"imageRegistrary.sol\":629:694  bytes32 ethSignedMessageHash = getEthSignedMessageHash(imageHash) */\n      swap1\n      pop\n        /* \"imageRegistrary.sol\":711:751  recover(ethSignedMessageHash, signature) */\n      tag_60\n        /* \"imageRegistrary.sol\":719:739  ethSignedMessageHash */\n      dup2\n        /* \"imageRegistrary.sol\":741:750  signature */\n      dup5\n        /* \"imageRegistrary.sol\":711:718  recover */\n      tag_61\n        /* \"imageRegistrary.sol\":711:751  recover(ethSignedMessageHash, signature) */\n      jump\t// in\n    tag_60:\n        /* \"imageRegistrary.sol\":704:751  return recover(ethSignedMessageHash, signature) */\n      swap2\n      pop\n      pop\n        /* \"imageRegistrary.sol\":523:758  function recoverSigner(bytes32 imageHash, bytes memory signature) public pure returns (address) {... */\n    tag_57:\n      swap3\n      swap2\n      pop\n      pop\n      jump\t// out\n        /* \"imageRegistrary.sol\":1429:1665  function recover(bytes32 ethSignedMessageHash, bytes memory signature) internal pure returns (address) {... */\n    tag_61:\n        /* \"imageRegistrary.sol\":1523:1530  address */\n      0x00\n        /* \"imageRegistrary.sol\":1543:1552  bytes32 r */\n      dup1\n        /* \"imageRegistrary.sol\":1554:1563  bytes32 s */\n      0x00\n        /* \"imageRegistrary.sol\":1565:1572  uint8 v */\n      dup1\n        /* \"imageRegistrary.sol\":1576:1601  splitSignature(signature) */\n      tag_66\n        /* \"imageRegistrary.sol\":1591:1600  signature */\n      dup6\n        /* \"imageRegistrary.sol\":1576:1590  splitSignature */\n      tag_67\n        /* \"imageRegistrary.sol\":1576:1601  splitSignature(signature) */\n      jump\t// in\n    tag_66:\n        /* \"imageRegistrary.sol\":1618:1658  ecrecover(ethSignedMessageHash, v, r, s) */\n      0x40\n      dup1\n      mload\n      0x00\n      dup2\n      mstore\n      0x20\n      dup2\n      add\n      dup1\n      dup4\n      mstore\n        /* \"#utility.yul\":8250:8275   */\n      dup12\n      swap1\n      mstore\n        /* \"#utility.yul\":8323:8327   */\n      0xff\n        /* \"#utility.yul\":8311:8328   */\n      dup4\n      and\n        /* \"#utility.yul\":8291:8309   */\n      swap2\n      dup2\n      add\n        /* \"#utility.yul\":8284:8329   */\n      swap2\n      swap1\n      swap2\n      mstore\n        /* \"#utility.yul\":8345:8363   */\n      0x60\n      dup2\n      add\n        /* \"#utility.yul\":8338:8372   */\n      dup5\n      swap1\n      mstore\n        /* \"#utility.yul\":8388:8406   */\n      0x80\n      dup2\n      add\n        /* \"#utility.yul\":8381:8415   */\n      dup4\n      swap1\n      mstore\n        /* \"imageRegistrary.sol\":1542:1601  (bytes32 r, bytes32 s, uint8 v) = splitSignature(signature) */\n      swap3\n      swap6\n      pop\n      swap1\n      swap4\n      pop\n      swap2\n      pop\n        /* \"imageRegistrary.sol\":1618:1658  ecrecover(ethSignedMessageHash, v, r, s) */\n      0x01\n      swap1\n        /* \"#utility.yul\":8222:8241   */\n      0xa0\n      add\n        /* \"imageRegistrary.sol\":1618:1658  ecrecover(ethSignedMessageHash, v, r, s) */\n      0x20\n      mload(0x40)\n      0x20\n      dup2\n      sub\n      swap1\n      dup1\n      dup5\n      sub\n      swap1\n      dup6\n      gas\n      staticcall\n      iszero\n      dup1\n      iszero\n      tag_71\n      jumpi\n      returndatasize\n      0x00\n      dup1\n      returndatacopy\n      revert(0x00, returndatasize)\n    tag_71:\n      pop\n      pop\n      mload(add(not(0x1f), mload(0x40)))\n      swap8\n        /* \"imageRegistrary.sol\":1429:1665  function recover(bytes32 ethSignedMessageHash, bytes memory signature) internal pure returns (address) {... */\n      swap7\n      pop\n      pop\n      pop\n      pop\n      pop\n      pop\n      pop\n      jump\t// out\n        /* \"imageRegistrary.sol\":1735:2294  function splitSignature(bytes memory sig) internal pure returns (bytes32 r, bytes32 s, uint8 v) {... */\n    tag_67:\n        /* \"imageRegistrary.sol\":1800:1809  bytes32 r */\n      0x00\n        /* \"imageRegistrary.sol\":1811:1820  bytes32 s */\n      dup1\n        /* \"imageRegistrary.sol\":1822:1829  uint8 v */\n      0x00\n        /* \"imageRegistrary.sol\":1849:1852  sig */\n      dup4\n        /* \"imageRegistrary.sol\":1849:1859  sig.length */\n      mload\n        /* \"imageRegistrary.sol\":1863:1865  65 */\n      0x41\n        /* \"imageRegistrary.sol\":1849:1865  sig.length == 65 */\n      eq\n        /* \"imageRegistrary.sol\":1841:1894  require(sig.length == 65, \"Invalid signature length\") */\n      tag_73\n      jumpi\n      mload(0x40)\n      shl(0xe5, 0x461bcd)\n      dup2\n      mstore\n        /* \"#utility.yul\":8628:8630   */\n      0x20\n        /* \"imageRegistrary.sol\":1841:1894  require(sig.length == 65, \"Invalid signature length\") */\n      0x04\n      dup3\n      add\n        /* \"#utility.yul\":8610:8631   */\n      mstore\n        /* \"#utility.yul\":8667:8669   */\n      0x18\n        /* \"#utility.yul\":8647:8665   */\n      0x24\n      dup3\n      add\n        /* \"#utility.yul\":8640:8670   */\n      mstore\n        /* \"#utility.yul\":8706:8732   */\n      0x496e76616c6964207369676e6174757265206c656e6774680000000000000000\n        /* \"#utility.yul\":8686:8704   */\n      0x44\n      dup3\n      add\n        /* \"#utility.yul\":8679:8733   */\n      mstore\n        /* \"#utility.yul\":8750:8768   */\n      0x64\n      add\n        /* \"imageRegistrary.sol\":1841:1894  require(sig.length == 65, \"Invalid signature length\") */\n      tag_47\n        /* \"#utility.yul\":8426:8774   */\n      jump\n        /* \"imageRegistrary.sol\":1841:1894  require(sig.length == 65, \"Invalid signature length\") */\n    tag_73:\n      pop\n      pop\n      pop\n        /* \"imageRegistrary.sol\":2013:2015  32 */\n      0x20\n        /* \"imageRegistrary.sol\":2004:2016  add(sig, 32) */\n      dup2\n      add\n        /* \"imageRegistrary.sol\":1998:2017  mload(add(sig, 32)) */\n      mload\n        /* \"imageRegistrary.sol\":2050:2052  64 */\n      0x40\n        /* \"imageRegistrary.sol\":2041:2053  add(sig, 64) */\n      dup3\n      add\n        /* \"imageRegistrary.sol\":2035:2054  mload(add(sig, 64)) */\n      mload\n        /* \"imageRegistrary.sol\":2178:2180  96 */\n      0x60\n        /* \"imageRegistrary.sol\":2169:2181  add(sig, 96) */\n      dup4\n      add\n        /* \"imageRegistrary.sol\":2163:2182  mload(add(sig, 96)) */\n      mload\n        /* \"imageRegistrary.sol\":2160:2161  0 */\n      0x00\n        /* \"imageRegistrary.sol\":2155:2183  byte(0, mload(add(sig, 96))) */\n      byte\n        /* \"imageRegistrary.sol\":2252:2254  27 */\n      0x1b\n        /* \"imageRegistrary.sol\":2248:2254  v < 27 */\n      dup2\n      lt\n        /* \"imageRegistrary.sol\":2244:2288  if (v < 27) {... */\n      iszero\n      tag_76\n      jumpi\n        /* \"imageRegistrary.sol\":2270:2277  v += 27 */\n      tag_77\n        /* \"imageRegistrary.sol\":2275:2277  27 */\n      0x1b\n        /* \"imageRegistrary.sol\":2270:2277  v += 27 */\n      dup3\n      tag_78\n      jump\t// in\n    tag_77:\n      swap1\n      pop\n        /* \"imageRegistrary.sol\":2244:2288  if (v < 27) {... */\n    tag_76:\n        /* \"imageRegistrary.sol\":1735:2294  function splitSignature(bytes memory sig) internal pure returns (bytes32 r, bytes32 s, uint8 v) {... */\n      swap2\n      swap4\n      swap1\n      swap3\n      pop\n      jump\t// out\n        /* \"#utility.yul\":14:141   */\n    tag_79:\n        /* \"#utility.yul\":75:85   */\n      0x4e487b71\n        /* \"#utility.yul\":70:73   */\n      0xe0\n        /* \"#utility.yul\":66:86   */\n      shl\n        /* \"#utility.yul\":63:64   */\n      0x00\n        /* \"#utility.yul\":56:87   */\n      mstore\n        /* \"#utility.yul\":106:110   */\n      0x41\n        /* \"#utility.yul\":103:104   */\n      0x04\n        /* \"#utility.yul\":96:111   */\n      mstore\n        /* \"#utility.yul\":130:134   */\n      0x24\n        /* \"#utility.yul\":127:128   */\n      0x00\n        /* \"#utility.yul\":120:135   */\n      revert\n        /* \"#utility.yul\":146:777   */\n    tag_80:\n        /* \"#utility.yul\":210:215   */\n      0x00\n        /* \"#utility.yul\":240:258   */\n      0xffffffffffffffff\n        /* \"#utility.yul\":281:283   */\n      dup1\n        /* \"#utility.yul\":273:279   */\n      dup5\n        /* \"#utility.yul\":270:284   */\n      gt\n        /* \"#utility.yul\":267:307   */\n      iszero\n      tag_90\n      jumpi\n        /* \"#utility.yul\":287:305   */\n      tag_90\n      tag_79\n      jump\t// in\n    tag_90:\n        /* \"#utility.yul\":362:364   */\n      0x40\n        /* \"#utility.yul\":356:365   */\n      mload\n        /* \"#utility.yul\":330:332   */\n      0x1f\n        /* \"#utility.yul\":416:431   */\n      dup6\n      add\n      not(0x1f)\n        /* \"#utility.yul\":412:436   */\n      swap1\n      dup2\n      and\n        /* \"#utility.yul\":438:440   */\n      0x3f\n        /* \"#utility.yul\":408:441   */\n      add\n        /* \"#utility.yul\":404:446   */\n      and\n        /* \"#utility.yul\":392:447   */\n      dup2\n      add\n      swap1\n        /* \"#utility.yul\":462:480   */\n      dup3\n      dup3\n      gt\n        /* \"#utility.yul\":482:504   */\n      dup2\n      dup4\n      lt\n        /* \"#utility.yul\":459:505   */\n      or\n        /* \"#utility.yul\":456:528   */\n      iszero\n      tag_92\n      jumpi\n        /* \"#utility.yul\":508:526   */\n      tag_92\n      tag_79\n      jump\t// in\n    tag_92:\n        /* \"#utility.yul\":548:558   */\n      dup2\n        /* \"#utility.yul\":544:546   */\n      0x40\n        /* \"#utility.yul\":537:559   */\n      mstore\n        /* \"#utility.yul\":577:583   */\n      dup1\n        /* \"#utility.yul\":568:583   */\n      swap4\n      pop\n        /* \"#utility.yul\":607:613   */\n      dup6\n        /* \"#utility.yul\":599:605   */\n      dup2\n        /* \"#utility.yul\":592:614   */\n      mstore\n        /* \"#utility.yul\":647:650   */\n      dup7\n        /* \"#utility.yul\":638:644   */\n      dup7\n        /* \"#utility.yul\":633:636   */\n      dup7\n        /* \"#utility.yul\":629:645   */\n      add\n        /* \"#utility.yul\":626:651   */\n      gt\n        /* \"#utility.yul\":623:668   */\n      iszero\n      tag_93\n      jumpi\n        /* \"#utility.yul\":664:665   */\n      0x00\n        /* \"#utility.yul\":661:662   */\n      dup1\n        /* \"#utility.yul\":654:666   */\n      revert\n        /* \"#utility.yul\":623:668   */\n    tag_93:\n        /* \"#utility.yul\":714:720   */\n      dup6\n        /* \"#utility.yul\":709:712   */\n      dup6\n        /* \"#utility.yul\":702:706   */\n      0x20\n        /* \"#utility.yul\":694:700   */\n      dup4\n        /* \"#utility.yul\":690:707   */\n      add\n        /* \"#utility.yul\":677:721   */\n      calldatacopy\n        /* \"#utility.yul\":769:770   */\n      0x00\n        /* \"#utility.yul\":762:766   */\n      0x20\n        /* \"#utility.yul\":753:759   */\n      dup8\n        /* \"#utility.yul\":745:751   */\n      dup4\n        /* \"#utility.yul\":741:760   */\n      add\n        /* \"#utility.yul\":737:767   */\n      add\n        /* \"#utility.yul\":730:771   */\n      mstore\n      pop\n      pop\n      pop\n        /* \"#utility.yul\":146:777   */\n      swap4\n      swap3\n      pop\n      pop\n      pop\n      jump\t// out\n        /* \"#utility.yul\":782:1002   */\n    tag_81:\n        /* \"#utility.yul\":824:829   */\n      0x00\n        /* \"#utility.yul\":877:880   */\n      dup3\n        /* \"#utility.yul\":870:874   */\n      0x1f\n        /* \"#utility.yul\":862:868   */\n      dup4\n        /* \"#utility.yul\":858:875   */\n      add\n        /* \"#utility.yul\":854:881   */\n      slt\n        /* \"#utility.yul\":844:899   */\n      tag_95\n      jumpi\n        /* \"#utility.yul\":895:896   */\n      0x00\n        /* \"#utility.yul\":892:893   */\n      dup1\n        /* \"#utility.yul\":885:897   */\n      revert\n        /* \"#utility.yul\":844:899   */\n    tag_95:\n        /* \"#utility.yul\":917:996   */\n      tag_96\n        /* \"#utility.yul\":992:995   */\n      dup4\n        /* \"#utility.yul\":983:989   */\n      dup4\n        /* \"#utility.yul\":970:990   */\n      calldataload\n        /* \"#utility.yul\":963:967   */\n      0x20\n        /* \"#utility.yul\":955:961   */\n      dup6\n        /* \"#utility.yul\":951:968   */\n      add\n        /* \"#utility.yul\":917:996   */\n      tag_80\n      jump\t// in\n    tag_96:\n        /* \"#utility.yul\":908:996   */\n      swap4\n        /* \"#utility.yul\":782:1002   */\n      swap3\n      pop\n      pop\n      pop\n      jump\t// out\n        /* \"#utility.yul\":1007:1592   */\n    tag_11:\n        /* \"#utility.yul\":1093:1099   */\n      0x00\n        /* \"#utility.yul\":1101:1107   */\n      dup1\n        /* \"#utility.yul\":1109:1115   */\n      0x00\n        /* \"#utility.yul\":1162:1164   */\n      0x60\n        /* \"#utility.yul\":1150:1159   */\n      dup5\n        /* \"#utility.yul\":1141:1148   */\n      dup7\n        /* \"#utility.yul\":1137:1160   */\n      sub\n        /* \"#utility.yul\":1133:1165   */\n      slt\n        /* \"#utility.yul\":1130:1182   */\n      iszero\n      tag_98\n      jumpi\n        /* \"#utility.yul\":1178:1179   */\n      0x00\n        /* \"#utility.yul\":1175:1176   */\n      dup1\n        /* \"#utility.yul\":1168:1180   */\n      revert\n        /* \"#utility.yul\":1130:1182   */\n    tag_98:\n        /* \"#utility.yul\":1217:1226   */\n      dup4\n        /* \"#utility.yul\":1204:1227   */\n      calldataload\n      sub(shl(0xa0, 0x01), 0x01)\n        /* \"#utility.yul\":1260:1265   */\n      dup2\n        /* \"#utility.yul\":1256:1310   */\n      and\n        /* \"#utility.yul\":1249:1254   */\n      dup2\n        /* \"#utility.yul\":1246:1311   */\n      eq\n        /* \"#utility.yul\":1236:1329   */\n      tag_99\n      jumpi\n        /* \"#utility.yul\":1325:1326   */\n      0x00\n        /* \"#utility.yul\":1322:1323   */\n      dup1\n        /* \"#utility.yul\":1315:1327   */\n      revert\n        /* \"#utility.yul\":1236:1329   */\n    tag_99:\n        /* \"#utility.yul\":1348:1353   */\n      swap3\n      pop\n        /* \"#utility.yul\":1400:1402   */\n      0x20\n        /* \"#utility.yul\":1385:1403   */\n      dup5\n      add\n        /* \"#utility.yul\":1372:1404   */\n      calldataload\n      swap2\n      pop\n        /* \"#utility.yul\":1455:1457   */\n      0x40\n        /* \"#utility.yul\":1440:1458   */\n      dup5\n      add\n        /* \"#utility.yul\":1427:1459   */\n      calldataload\n        /* \"#utility.yul\":1482:1500   */\n      0xffffffffffffffff\n        /* \"#utility.yul\":1471:1501   */\n      dup2\n      gt\n        /* \"#utility.yul\":1468:1518   */\n      iszero\n      tag_100\n      jumpi\n        /* \"#utility.yul\":1514:1515   */\n      0x00\n        /* \"#utility.yul\":1511:1512   */\n      dup1\n        /* \"#utility.yul\":1504:1516   */\n      revert\n        /* \"#utility.yul\":1468:1518   */\n    tag_100:\n        /* \"#utility.yul\":1537:1586   */\n      tag_101\n        /* \"#utility.yul\":1578:1585   */\n      dup7\n        /* \"#utility.yul\":1569:1575   */\n      dup3\n        /* \"#utility.yul\":1558:1567   */\n      dup8\n        /* \"#utility.yul\":1554:1576   */\n      add\n        /* \"#utility.yul\":1537:1586   */\n      tag_81\n      jump\t// in\n    tag_101:\n        /* \"#utility.yul\":1527:1586   */\n      swap2\n      pop\n      pop\n        /* \"#utility.yul\":1007:1592   */\n      swap3\n      pop\n      swap3\n      pop\n      swap3\n      jump\t// out\n        /* \"#utility.yul\":1789:1969   */\n    tag_17:\n        /* \"#utility.yul\":1848:1854   */\n      0x00\n        /* \"#utility.yul\":1901:1903   */\n      0x20\n        /* \"#utility.yul\":1889:1898   */\n      dup3\n        /* \"#utility.yul\":1880:1887   */\n      dup5\n        /* \"#utility.yul\":1876:1899   */\n      sub\n        /* \"#utility.yul\":1872:1904   */\n      slt\n        /* \"#utility.yul\":1869:1921   */\n      iszero\n      tag_104\n      jumpi\n        /* \"#utility.yul\":1917:1918   */\n      0x00\n        /* \"#utility.yul\":1914:1915   */\n      dup1\n        /* \"#utility.yul\":1907:1919   */\n      revert\n        /* \"#utility.yul\":1869:1921   */\n    tag_104:\n      pop\n        /* \"#utility.yul\":1940:1963   */\n      calldataload\n      swap2\n        /* \"#utility.yul\":1789:1969   */\n      swap1\n      pop\n      jump\t// out\n        /* \"#utility.yul\":1974:2397   */\n    tag_82:\n        /* \"#utility.yul\":2016:2019   */\n      0x00\n        /* \"#utility.yul\":2054:2059   */\n      dup2\n        /* \"#utility.yul\":2048:2060   */\n      mload\n        /* \"#utility.yul\":2081:2087   */\n      dup1\n        /* \"#utility.yul\":2076:2079   */\n      dup5\n        /* \"#utility.yul\":2069:2088   */\n      mstore\n        /* \"#utility.yul\":2106:2107   */\n      0x00\n        /* \"#utility.yul\":2116:2278   */\n    tag_106:\n        /* \"#utility.yul\":2130:2136   */\n      dup2\n        /* \"#utility.yul\":2127:2128   */\n      dup2\n        /* \"#utility.yul\":2124:2137   */\n      lt\n        /* \"#utility.yul\":2116:2278   */\n      iszero\n      tag_108\n      jumpi\n        /* \"#utility.yul\":2192:2196   */\n      0x20\n        /* \"#utility.yul\":2248:2261   */\n      dup2\n      dup6\n      add\n        /* \"#utility.yul\":2244:2266   */\n      dup2\n      add\n        /* \"#utility.yul\":2238:2267   */\n      mload\n        /* \"#utility.yul\":2220:2231   */\n      dup7\n      dup4\n      add\n        /* \"#utility.yul\":2216:2236   */\n      dup3\n      add\n        /* \"#utility.yul\":2209:2268   */\n      mstore\n        /* \"#utility.yul\":2145:2157   */\n      add\n        /* \"#utility.yul\":2116:2278   */\n      jump(tag_106)\n    tag_108:\n        /* \"#utility.yul\":2120:2123   */\n      pop\n        /* \"#utility.yul\":2323:2324   */\n      0x00\n        /* \"#utility.yul\":2316:2320   */\n      0x20\n        /* \"#utility.yul\":2307:2313   */\n      dup3\n        /* \"#utility.yul\":2302:2305   */\n      dup7\n        /* \"#utility.yul\":2298:2314   */\n      add\n        /* \"#utility.yul\":2294:2321   */\n      add\n        /* \"#utility.yul\":2287:2325   */\n      mstore\n        /* \"#utility.yul\":2386:2390   */\n      0x20\n        /* \"#utility.yul\":2379:2381   */\n      0x1f\n        /* \"#utility.yul\":2375:2382   */\n      not\n        /* \"#utility.yul\":2370:2372   */\n      0x1f\n        /* \"#utility.yul\":2362:2368   */\n      dup4\n        /* \"#utility.yul\":2358:2373   */\n      add\n        /* \"#utility.yul\":2354:2383   */\n      and\n        /* \"#utility.yul\":2349:2352   */\n      dup6\n        /* \"#utility.yul\":2345:2384   */\n      add\n        /* \"#utility.yul\":2341:2391   */\n      add\n        /* \"#utility.yul\":2334:2391   */\n      swap2\n      pop\n      pop\n        /* \"#utility.yul\":1974:2397   */\n      swap3\n      swap2\n      pop\n      pop\n      jump\t// out\n        /* \"#utility.yul\":2402:2622   */\n    tag_20:\n        /* \"#utility.yul\":2551:2553   */\n      0x20\n        /* \"#utility.yul\":2540:2549   */\n      dup2\n        /* \"#utility.yul\":2533:2554   */\n      mstore\n        /* \"#utility.yul\":2514:2518   */\n      0x00\n        /* \"#utility.yul\":2571:2616   */\n      tag_96\n        /* \"#utility.yul\":2612:2614   */\n      0x20\n        /* \"#utility.yul\":2601:2610   */\n      dup4\n        /* \"#utility.yul\":2597:2615   */\n      add\n        /* \"#utility.yul\":2589:2595   */\n      dup5\n        /* \"#utility.yul\":2571:2616   */\n      tag_82\n      jump\t// in\n        /* \"#utility.yul\":2627:3364   */\n    tag_23:\n        /* \"#utility.yul\":2723:2729   */\n      0x00\n        /* \"#utility.yul\":2731:2737   */\n      dup1\n        /* \"#utility.yul\":2739:2745   */\n      0x00\n        /* \"#utility.yul\":2792:2794   */\n      0x60\n        /* \"#utility.yul\":2780:2789   */\n      dup5\n        /* \"#utility.yul\":2771:2778   */\n      dup7\n        /* \"#utility.yul\":2767:2790   */\n      sub\n        /* \"#utility.yul\":2763:2795   */\n      slt\n        /* \"#utility.yul\":2760:2812   */\n      iszero\n      tag_112\n      jumpi\n        /* \"#utility.yul\":2808:2809   */\n      0x00\n        /* \"#utility.yul\":2805:2806   */\n      dup1\n        /* \"#utility.yul\":2798:2810   */\n      revert\n        /* \"#utility.yul\":2760:2812   */\n    tag_112:\n        /* \"#utility.yul\":2844:2853   */\n      dup4\n        /* \"#utility.yul\":2831:2854   */\n      calldataload\n        /* \"#utility.yul\":2821:2854   */\n      swap3\n      pop\n        /* \"#utility.yul\":2905:2907   */\n      0x20\n        /* \"#utility.yul\":2894:2903   */\n      dup5\n        /* \"#utility.yul\":2890:2908   */\n      add\n        /* \"#utility.yul\":2877:2909   */\n      calldataload\n        /* \"#utility.yul\":2928:2946   */\n      0xffffffffffffffff\n        /* \"#utility.yul\":2969:2971   */\n      dup1\n        /* \"#utility.yul\":2961:2967   */\n      dup3\n        /* \"#utility.yul\":2958:2972   */\n      gt\n        /* \"#utility.yul\":2955:2989   */\n      iszero\n      tag_113\n      jumpi\n        /* \"#utility.yul\":2985:2986   */\n      0x00\n        /* \"#utility.yul\":2982:2983   */\n      dup1\n        /* \"#utility.yul\":2975:2987   */\n      revert\n        /* \"#utility.yul\":2955:2989   */\n    tag_113:\n        /* \"#utility.yul\":3023:3029   */\n      dup2\n        /* \"#utility.yul\":3012:3021   */\n      dup7\n        /* \"#utility.yul\":3008:3030   */\n      add\n        /* \"#utility.yul\":2998:3030   */\n      swap2\n      pop\n        /* \"#utility.yul\":3068:3075   */\n      dup7\n        /* \"#utility.yul\":3061:3065   */\n      0x1f\n        /* \"#utility.yul\":3057:3059   */\n      dup4\n        /* \"#utility.yul\":3053:3066   */\n      add\n        /* \"#utility.yul\":3049:3076   */\n      slt\n        /* \"#utility.yul\":3039:3094   */\n      tag_114\n      jumpi\n        /* \"#utility.yul\":3090:3091   */\n      0x00\n        /* \"#utility.yul\":3087:3088   */\n      dup1\n        /* \"#utility.yul\":3080:3092   */\n      revert\n        /* \"#utility.yul\":3039:3094   */\n    tag_114:\n        /* \"#utility.yul\":3113:3186   */\n      tag_115\n        /* \"#utility.yul\":3178:3185   */\n      dup8\n        /* \"#utility.yul\":3173:3175   */\n      dup4\n        /* \"#utility.yul\":3160:3176   */\n      calldataload\n        /* \"#utility.yul\":3155:3157   */\n      0x20\n        /* \"#utility.yul\":3151:3153   */\n      dup6\n        /* \"#utility.yul\":3147:3158   */\n      add\n        /* \"#utility.yul\":3113:3186   */\n      tag_80\n      jump\t// in\n    tag_115:\n        /* \"#utility.yul\":3103:3186   */\n      swap4\n      pop\n        /* \"#utility.yul\":3239:3241   */\n      0x40\n        /* \"#utility.yul\":3228:3237   */\n      dup7\n        /* \"#utility.yul\":3224:3242   */\n      add\n        /* \"#utility.yul\":3211:3243   */\n      calldataload\n        /* \"#utility.yul\":3195:3243   */\n      swap2\n      pop\n        /* \"#utility.yul\":3268:3270   */\n      dup1\n        /* \"#utility.yul\":3258:3266   */\n      dup3\n        /* \"#utility.yul\":3255:3271   */\n      gt\n        /* \"#utility.yul\":3252:3288   */\n      iszero\n      tag_116\n      jumpi\n        /* \"#utility.yul\":3284:3285   */\n      0x00\n        /* \"#utility.yul\":3281:3282   */\n      dup1\n        /* \"#utility.yul\":3274:3286   */\n      revert\n        /* \"#utility.yul\":3252:3288   */\n    tag_116:\n      pop\n        /* \"#utility.yul\":3307:3358   */\n      tag_101\n        /* \"#utility.yul\":3350:3357   */\n      dup7\n        /* \"#utility.yul\":3339:3347   */\n      dup3\n        /* \"#utility.yul\":3328:3337   */\n      dup8\n        /* \"#utility.yul\":3324:3348   */\n      add\n        /* \"#utility.yul\":3307:3358   */\n      tag_81\n      jump\t// in\n        /* \"#utility.yul\":3600:3988   */\n    tag_32:\n        /* \"#utility.yul\":3677:3683   */\n      0x00\n        /* \"#utility.yul\":3685:3691   */\n      dup1\n        /* \"#utility.yul\":3738:3740   */\n      0x40\n        /* \"#utility.yul\":3726:3735   */\n      dup4\n        /* \"#utility.yul\":3717:3724   */\n      dup6\n        /* \"#utility.yul\":3713:3736   */\n      sub\n        /* \"#utility.yul\":3709:3741   */\n      slt\n        /* \"#utility.yul\":3706:3758   */\n      iszero\n      tag_120\n      jumpi\n        /* \"#utility.yul\":3754:3755   */\n      0x00\n        /* \"#utility.yul\":3751:3752   */\n      dup1\n        /* \"#utility.yul\":3744:3756   */\n      revert\n        /* \"#utility.yul\":3706:3758   */\n    tag_120:\n        /* \"#utility.yul\":3790:3799   */\n      dup3\n        /* \"#utility.yul\":3777:3800   */\n      calldataload\n        /* \"#utility.yul\":3767:3800   */\n      swap2\n      pop\n        /* \"#utility.yul\":3851:3853   */\n      0x20\n        /* \"#utility.yul\":3840:3849   */\n      dup4\n        /* \"#utility.yul\":3836:3854   */\n      add\n        /* \"#utility.yul\":3823:3855   */\n      calldataload\n        /* \"#utility.yul\":3878:3896   */\n      0xffffffffffffffff\n        /* \"#utility.yul\":3870:3876   */\n      dup2\n        /* \"#utility.yul\":3867:3897   */\n      gt\n        /* \"#utility.yul\":3864:3914   */\n      iszero\n      tag_121\n      jumpi\n        /* \"#utility.yul\":3910:3911   */\n      0x00\n        /* \"#utility.yul\":3907:3908   */\n      dup1\n        /* \"#utility.yul\":3900:3912   */\n      revert\n        /* \"#utility.yul\":3864:3914   */\n    tag_121:\n        /* \"#utility.yul\":3933:3982   */\n      tag_122\n        /* \"#utility.yul\":3974:3981   */\n      dup6\n        /* \"#utility.yul\":3965:3971   */\n      dup3\n        /* \"#utility.yul\":3954:3963   */\n      dup7\n        /* \"#utility.yul\":3950:3972   */\n      add\n        /* \"#utility.yul\":3933:3982   */\n      tag_81\n      jump\t// in\n    tag_122:\n        /* \"#utility.yul\":3923:3982   */\n      swap2\n      pop\n      pop\n        /* \"#utility.yul\":3600:3988   */\n      swap3\n      pop\n      swap3\n      swap1\n      pop\n      jump\t// out\n        /* \"#utility.yul\":3993:4373   */\n    tag_39:\n        /* \"#utility.yul\":4072:4073   */\n      0x01\n        /* \"#utility.yul\":4068:4080   */\n      dup2\n      dup2\n      shr\n      swap1\n        /* \"#utility.yul\":4115:4127   */\n      dup3\n      and\n      dup1\n        /* \"#utility.yul\":4136:4197   */\n      tag_124\n      jumpi\n        /* \"#utility.yul\":4190:4194   */\n      0x7f\n        /* \"#utility.yul\":4182:4188   */\n      dup3\n        /* \"#utility.yul\":4178:4195   */\n      and\n        /* \"#utility.yul\":4168:4195   */\n      swap2\n      pop\n        /* \"#utility.yul\":4136:4197   */\n    tag_124:\n        /* \"#utility.yul\":4243:4245   */\n      0x20\n        /* \"#utility.yul\":4235:4241   */\n      dup3\n        /* \"#utility.yul\":4232:4246   */\n      lt\n        /* \"#utility.yul\":4212:4230   */\n      dup2\n        /* \"#utility.yul\":4209:4247   */\n      sub\n        /* \"#utility.yul\":4206:4367   */\n      tag_125\n      jumpi\n        /* \"#utility.yul\":4289:4299   */\n      0x4e487b71\n        /* \"#utility.yul\":4284:4287   */\n      0xe0\n        /* \"#utility.yul\":4280:4300   */\n      shl\n        /* \"#utility.yul\":4277:4278   */\n      0x00\n        /* \"#utility.yul\":4270:4301   */\n      mstore\n        /* \"#utility.yul\":4324:4328   */\n      0x22\n        /* \"#utility.yul\":4321:4322   */\n      0x04\n        /* \"#utility.yul\":4314:4329   */\n      mstore\n        /* \"#utility.yul\":4352:4356   */\n      0x24\n        /* \"#utility.yul\":4349:4350   */\n      0x00\n        /* \"#utility.yul\":4342:4357   */\n      revert\n        /* \"#utility.yul\":4206:4367   */\n    tag_125:\n      pop\n        /* \"#utility.yul\":3993:4373   */\n      swap2\n      swap1\n      pop\n      jump\t// out\n        /* \"#utility.yul\":5215:5760   */\n    tag_84:\n        /* \"#utility.yul\":5317:5319   */\n      0x1f\n        /* \"#utility.yul\":5312:5315   */\n      dup3\n        /* \"#utility.yul\":5309:5320   */\n      gt\n        /* \"#utility.yul\":5306:5754   */\n      iszero\n      tag_130\n      jumpi\n        /* \"#utility.yul\":5353:5354   */\n      0x00\n        /* \"#utility.yul\":5378:5383   */\n      dup2\n        /* \"#utility.yul\":5374:5376   */\n      dup2\n        /* \"#utility.yul\":5367:5384   */\n      mstore\n        /* \"#utility.yul\":5423:5427   */\n      0x20\n        /* \"#utility.yul\":5419:5421   */\n      dup2\n        /* \"#utility.yul\":5409:5428   */\n      keccak256\n        /* \"#utility.yul\":5493:5495   */\n      0x1f\n        /* \"#utility.yul\":5481:5491   */\n      dup6\n        /* \"#utility.yul\":5477:5496   */\n      add\n        /* \"#utility.yul\":5474:5475   */\n      0x05\n        /* \"#utility.yul\":5470:5497   */\n      shr\n        /* \"#utility.yul\":5464:5468   */\n      dup2\n        /* \"#utility.yul\":5460:5498   */\n      add\n        /* \"#utility.yul\":5529:5533   */\n      0x20\n        /* \"#utility.yul\":5517:5527   */\n      dup7\n        /* \"#utility.yul\":5514:5534   */\n      lt\n        /* \"#utility.yul\":5511:5558   */\n      iszero\n      tag_131\n      jumpi\n      pop\n        /* \"#utility.yul\":5552:5556   */\n      dup1\n        /* \"#utility.yul\":5511:5558   */\n    tag_131:\n        /* \"#utility.yul\":5607:5609   */\n      0x1f\n        /* \"#utility.yul\":5602:5605   */\n      dup6\n        /* \"#utility.yul\":5598:5610   */\n      add\n        /* \"#utility.yul\":5595:5596   */\n      0x05\n        /* \"#utility.yul\":5591:5611   */\n      shr\n        /* \"#utility.yul\":5585:5589   */\n      dup3\n        /* \"#utility.yul\":5581:5612   */\n      add\n        /* \"#utility.yul\":5571:5612   */\n      swap2\n      pop\n        /* \"#utility.yul\":5662:5744   */\n    tag_132:\n        /* \"#utility.yul\":5680:5682   */\n      dup2\n        /* \"#utility.yul\":5673:5678   */\n      dup2\n        /* \"#utility.yul\":5670:5683   */\n      lt\n        /* \"#utility.yul\":5662:5744   */\n      iszero\n      tag_134\n      jumpi\n        /* \"#utility.yul\":5725:5742   */\n      dup3\n      dup2\n      sstore\n        /* \"#utility.yul\":5706:5707   */\n      0x01\n        /* \"#utility.yul\":5695:5708   */\n      add\n        /* \"#utility.yul\":5662:5744   */\n      jump(tag_132)\n    tag_134:\n        /* \"#utility.yul\":5666:5669   */\n      pop\n      pop\n      pop\n        /* \"#utility.yul\":5306:5754   */\n    tag_130:\n        /* \"#utility.yul\":5215:5760   */\n      pop\n      pop\n      pop\n      jump\t// out\n        /* \"#utility.yul\":5936:7288   */\n    tag_53:\n        /* \"#utility.yul\":6062:6065   */\n      dup2\n        /* \"#utility.yul\":6056:6066   */\n      mload\n        /* \"#utility.yul\":6089:6107   */\n      0xffffffffffffffff\n        /* \"#utility.yul\":6081:6087   */\n      dup2\n        /* \"#utility.yul\":6078:6108   */\n      gt\n        /* \"#utility.yul\":6075:6131   */\n      iszero\n      tag_138\n      jumpi\n        /* \"#utility.yul\":6111:6129   */\n      tag_138\n      tag_79\n      jump\t// in\n    tag_138:\n        /* \"#utility.yul\":6140:6237   */\n      tag_139\n        /* \"#utility.yul\":6230:6236   */\n      dup2\n        /* \"#utility.yul\":6190:6228   */\n      tag_140\n        /* \"#utility.yul\":6222:6226   */\n      dup5\n        /* \"#utility.yul\":6216:6227   */\n      sload\n        /* \"#utility.yul\":6190:6228   */\n      tag_39\n      jump\t// in\n    tag_140:\n        /* \"#utility.yul\":6184:6188   */\n      dup5\n        /* \"#utility.yul\":6140:6237   */\n      tag_84\n      jump\t// in\n    tag_139:\n        /* \"#utility.yul\":6292:6296   */\n      0x20\n      dup1\n        /* \"#utility.yul\":6356:6358   */\n      0x1f\n        /* \"#utility.yul\":6345:6359   */\n      dup4\n      gt\n        /* \"#utility.yul\":6373:6374   */\n      0x01\n        /* \"#utility.yul\":6368:7031   */\n      dup2\n      eq\n      tag_142\n      jumpi\n        /* \"#utility.yul\":7075:7076   */\n      0x00\n        /* \"#utility.yul\":7092:7098   */\n      dup5\n        /* \"#utility.yul\":7089:7178   */\n      iszero\n      tag_143\n      jumpi\n      pop\n        /* \"#utility.yul\":7144:7163   */\n      dup6\n      dup4\n      add\n        /* \"#utility.yul\":7138:7164   */\n      mload\n        /* \"#utility.yul\":7089:7178   */\n    tag_143:\n      not(0x00)\n        /* \"#utility.yul\":5893:5894   */\n      0x03\n        /* \"#utility.yul\":5889:5900   */\n      dup7\n      swap1\n      shl\n        /* \"#utility.yul\":5885:5909   */\n      shr\n        /* \"#utility.yul\":5881:5910   */\n      not\n        /* \"#utility.yul\":5871:5911   */\n      and\n        /* \"#utility.yul\":5917:5918   */\n      0x01\n        /* \"#utility.yul\":5913:5924   */\n      dup6\n      swap1\n      shl\n        /* \"#utility.yul\":5868:5925   */\n      or\n        /* \"#utility.yul\":7191:7272   */\n      dup6\n      sstore\n        /* \"#utility.yul\":6338:7282   */\n      jump(tag_134)\n        /* \"#utility.yul\":6368:7031   */\n    tag_142:\n        /* \"#utility.yul\":5162:5163   */\n      0x00\n        /* \"#utility.yul\":5155:5169   */\n      dup6\n      dup2\n      mstore\n        /* \"#utility.yul\":5199:5203   */\n      0x20\n        /* \"#utility.yul\":5186:5204   */\n      dup2\n      keccak256\n      not(0x1f)\n        /* \"#utility.yul\":6404:6424   */\n      dup7\n      and\n      swap2\n        /* \"#utility.yul\":6522:6758   */\n    tag_146:\n        /* \"#utility.yul\":6536:6543   */\n      dup3\n        /* \"#utility.yul\":6533:6534   */\n      dup2\n        /* \"#utility.yul\":6530:6544   */\n      lt\n        /* \"#utility.yul\":6522:6758   */\n      iszero\n      tag_148\n      jumpi\n        /* \"#utility.yul\":6625:6644   */\n      dup9\n      dup7\n      add\n        /* \"#utility.yul\":6619:6645   */\n      mload\n        /* \"#utility.yul\":6604:6646   */\n      dup3\n      sstore\n        /* \"#utility.yul\":6717:6744   */\n      swap5\n      dup5\n      add\n      swap5\n        /* \"#utility.yul\":6685:6686   */\n      0x01\n        /* \"#utility.yul\":6673:6687   */\n      swap1\n      swap2\n      add\n      swap1\n        /* \"#utility.yul\":6552:6571   */\n      dup5\n      add\n        /* \"#utility.yul\":6522:6758   */\n      jump(tag_146)\n    tag_148:\n        /* \"#utility.yul\":6526:6529   */\n      pop\n        /* \"#utility.yul\":6786:6792   */\n      dup6\n        /* \"#utility.yul\":6777:6784   */\n      dup3\n        /* \"#utility.yul\":6774:6793   */\n      lt\n        /* \"#utility.yul\":6771:6972   */\n      iszero\n      tag_149\n      jumpi\n        /* \"#utility.yul\":6847:6866   */\n      dup8\n      dup6\n      add\n        /* \"#utility.yul\":6841:6867   */\n      mload\n      not(0x00)\n        /* \"#utility.yul\":6930:6931   */\n      0x03\n        /* \"#utility.yul\":6926:6940   */\n      dup9\n      swap1\n      shl\n        /* \"#utility.yul\":6942:6945   */\n      0xf8\n        /* \"#utility.yul\":6922:6946   */\n      and\n        /* \"#utility.yul\":6918:6955   */\n      shr\n        /* \"#utility.yul\":6914:6956   */\n      not\n        /* \"#utility.yul\":6899:6957   */\n      and\n        /* \"#utility.yul\":6884:6958   */\n      dup2\n      sstore\n        /* \"#utility.yul\":6771:6972   */\n    tag_149:\n      pop\n      pop\n      pop\n      pop\n      pop\n        /* \"#utility.yul\":7018:7019   */\n      0x01\n        /* \"#utility.yul\":7002:7016   */\n      swap1\n      dup2\n      shl\n        /* \"#utility.yul\":6998:7020   */\n      add\n        /* \"#utility.yul\":6985:7021   */\n      swap1\n      sstore\n      pop\n        /* \"#utility.yul\":5936:7288   */\n      jump\t// out\n        /* \"#utility.yul\":7293:7633   */\n    tag_55:\n        /* \"#utility.yul\":7470:7472   */\n      0x40\n        /* \"#utility.yul\":7459:7468   */\n      dup2\n        /* \"#utility.yul\":7452:7473   */\n      mstore\n        /* \"#utility.yul\":7433:7437   */\n      0x00\n        /* \"#utility.yul\":7490:7535   */\n      tag_151\n        /* \"#utility.yul\":7531:7533   */\n      0x40\n        /* \"#utility.yul\":7520:7529   */\n      dup4\n        /* \"#utility.yul\":7516:7534   */\n      add\n        /* \"#utility.yul\":7508:7514   */\n      dup6\n        /* \"#utility.yul\":7490:7535   */\n      tag_82\n      jump\t// in\n    tag_151:\n        /* \"#utility.yul\":7482:7535   */\n      swap1\n      pop\n      sub(shl(0xa0, 0x01), 0x01)\n        /* \"#utility.yul\":7575:7581   */\n      dup4\n        /* \"#utility.yul\":7571:7626   */\n      and\n        /* \"#utility.yul\":7566:7568   */\n      0x20\n        /* \"#utility.yul\":7555:7564   */\n      dup4\n        /* \"#utility.yul\":7551:7569   */\n      add\n        /* \"#utility.yul\":7544:7627   */\n      mstore\n        /* \"#utility.yul\":7293:7633   */\n      swap4\n      swap3\n      pop\n      pop\n      pop\n      jump\t// out\n        /* \"#utility.yul\":8779:9024   */\n    tag_78:\n        /* \"#utility.yul\":8867:8871   */\n      0xff\n        /* \"#utility.yul\":8846:8858   */\n      dup2\n      dup2\n      and\n        /* \"#utility.yul\":8860:8872   */\n      dup4\n      dup3\n      and\n        /* \"#utility.yul\":8842:8873   */\n      add\n      swap1\n        /* \"#utility.yul\":8885:8898   */\n      dup2\n      gt\n        /* \"#utility.yul\":8882:9018   */\n      iszero\n      tag_57\n      jumpi\n        /* \"#utility.yul\":8940:8950   */\n      0x4e487b71\n        /* \"#utility.yul\":8935:8938   */\n      0xe0\n        /* \"#utility.yul\":8931:8951   */\n      shl\n        /* \"#utility.yul\":8928:8929   */\n      0x00\n        /* \"#utility.yul\":8921:8952   */\n      mstore\n        /* \"#utility.yul\":8975:8979   */\n      0x11\n        /* \"#utility.yul\":8972:8973   */\n      0x04\n        /* \"#utility.yul\":8965:8980   */\n      mstore\n        /* \"#utility.yul\":9003:9007   */\n      0x24\n        /* \"#utility.yul\":9000:9001   */\n      0x00\n        /* \"#utility.yul\":8993:9008   */\n      revert\n\n    auxdata: 0xa26469706673582212209820518fed65c5b519070f05e3dd92ee8603dc7c12bcb6694bd21996477b733864736f6c63430008110033\n}\n",
    "bytecode": {
      "linkReferences": {},
      "object": "608060405234801561001057600080fd5b506108f6806100206000396000f3fe608060405234801561001057600080fd5b50600436106100675760003560e01c80639241ef21116100505780639241ef21146100b45780639523597d146100c957806397aba7f91461010d57600080fd5b80631a86b5501461006c5780632ed5ef1414610094575b600080fd5b61007f61007a36600461058d565b610120565b60405190151581526020015b60405180910390f35b6100a76100a23660046105f2565b610148565b60405161008b9190610651565b6100c76100c2366004610664565b6101ea565b005b6100f56100d73660046105f2565b6000908152602081905260409020600101546001600160a01b031690565b6040516001600160a01b03909116815260200161008b565b6100f561011b3660046106de565b610362565b6000836001600160a01b03166101368484610362565b6001600160a01b031614949350505050565b600081815260208190526040902080546060919061016590610725565b80601f016020809104026020016040519081016040528092919081815260200182805461019190610725565b80156101de5780601f106101b3576101008083540402835291602001916101de565b820191906000526020600020905b8154815290600101906020018083116101c157829003601f168201915b50505050509050919050565b6101f5338483610120565b6102465760405162461bcd60e51b815260206004820152601d60248201527f5369676e617475726520766572696669636174696f6e206661696c656400000060448201526064015b60405180910390fd5b6000838152602081905260409020600101546001600160a01b0316156102ae5760405162461bcd60e51b815260206004820152601860248201527f496d61676520616c726561647920726567697374657265640000000000000000604482015260640161023d565b6040805180820182528381523360208083019190915260008681529081905291909120815181906102df90826107ae565b5060209190910151600190910180547fffffffffffffffffffffffff0000000000000000000000000000000000000000166001600160a01b0390921691909117905560405183907fdd83f6763b0a3f7fe47784c369e552cce819efeec4e7c97b5e0629ce41f1128890610355908590339061086e565b60405180910390a2505050565b6000806103bc846040517f19457468657265756d205369676e6564204d6573736167653a0a3332000000006020820152603c8101829052600090605c01604051602081830303815290604052805190602001209050919050565b90506103c881846103d2565b9150505b92915050565b6000806000806103e185610451565b6040805160008152602081018083528b905260ff8316918101919091526060810184905260808101839052929550909350915060019060a0016020604051602081039080840390855afa15801561043c573d6000803e3d6000fd5b5050604051601f190151979650505050505050565b600080600083516041146104a75760405162461bcd60e51b815260206004820152601860248201527f496e76616c6964207369676e6174757265206c656e6774680000000000000000604482015260640161023d565b50505060208101516040820151606083015160001a601b8110156104d3576104d0601b82610899565b90505b9193909250565b634e487b7160e01b600052604160045260246000fd5b600067ffffffffffffffff8084111561050b5761050b6104da565b604051601f8501601f19908116603f01168101908282118183101715610533576105336104da565b8160405280935085815286868601111561054c57600080fd5b858560208301376000602087830101525050509392505050565b600082601f83011261057757600080fd5b610586838335602085016104f0565b9392505050565b6000806000606084860312156105a257600080fd5b83356001600160a01b03811681146105b957600080fd5b925060208401359150604084013567ffffffffffffffff8111156105dc57600080fd5b6105e886828701610566565b9150509250925092565b60006020828403121561060457600080fd5b5035919050565b6000815180845260005b8181101561063157602081850181015186830182015201610615565b506000602082860101526020601f19601f83011685010191505092915050565b602081526000610586602083018461060b565b60008060006060848603121561067957600080fd5b83359250602084013567ffffffffffffffff8082111561069857600080fd5b818601915086601f8301126106ac57600080fd5b6106bb878335602085016104f0565b935060408601359150808211156106d157600080fd5b506105e886828701610566565b600080604083850312156106f157600080fd5b82359150602083013567ffffffffffffffff81111561070f57600080fd5b61071b85828601610566565b9150509250929050565b600181811c9082168061073957607f821691505b60208210810361075957634e487b7160e01b600052602260045260246000fd5b50919050565b601f8211156107a957600081815260208120601f850160051c810160208610156107865750805b601f850160051c820191505b818110156107a557828155600101610792565b5050505b505050565b815167ffffffffffffffff8111156107c8576107c86104da565b6107dc816107d68454610725565b8461075f565b602080601f83116001811461081157600084156107f95750858301515b600019600386901b1c1916600185901b1785556107a5565b600085815260208120601f198616915b8281101561084057888601518255948401946001909101908401610821565b508582101561085e5787850151600019600388901b60f8161c191681555b5050505050600190811b01905550565b604081526000610881604083018561060b565b90506001600160a01b03831660208301529392505050565b60ff81811683821601908111156103cc57634e487b7160e01b600052601160045260246000fdfea26469706673582212209820518fed65c5b519070f05e3dd92ee8603dc7c12bcb6694bd21996477b733864736f6c63430008110033",
      "opcodes": "PUSH1 0x80 PUSH1 0x40 MSTORE CALLVALUE DUP1 ISZERO PUSH2 0x10 JUMPI PUSH1 0x0 DUP1 REVERT JUMPDEST POP PUSH2 0x8F6 DUP1 PUSH2 0x20 PUSH1 0x0 CODECOPY PUSH1 0x0 RETURN INVALID PUSH1 0x80 PUSH1 0x40 MSTORE CALLVALUE DUP1 ISZERO PUSH2 0x10 JUMPI PUSH1 0x0 DUP1 REVERT JUMPDEST POP PUSH1 0x4 CALLDATASIZE LT PUSH2 0x67 JUMPI PUSH1 0x0 CALLDATALOAD PUSH1 0xE0 SHR DUP1 PUSH4 0x9241EF21 GT PUSH2 0x50 JUMPI DUP1 PUSH4 0x9241EF21 EQ PUSH2 0xB4 JUMPI DUP1 PUSH4 0x9523597D EQ PUSH2 0xC9 JUMPI DUP1 PUSH4 0x97ABA7F9 EQ PUSH2 0x10D JUMPI PUSH1 0x0 DUP1 REVERT JUMPDEST DUP1 PUSH4 0x1A86B550 EQ PUSH2 0x6C JUMPI DUP1 PUSH4 0x2ED5EF14 EQ PUSH2 0x94 JUMPI JUMPDEST PUSH1 0x0 DUP1 REVERT JUMPDEST PUSH2 0x7F PUSH2 0x7A CALLDATASIZE PUSH1 0x4 PUSH2 0x58D JUMP JUMPDEST PUSH2 0x120 JUMP JUMPDEST PUSH1 0x40 MLOAD SWAP1 ISZERO ISZERO DUP2 MSTORE PUSH1 0x20 ADD JUMPDEST PUSH1 0x40 MLOAD DUP1 SWAP2 SUB SWAP1 RETURN JUMPDEST PUSH2 0xA7 PUSH2 0xA2 CALLDATASIZE PUSH1 0x4 PUSH2 0x5F2 JUMP JUMPDEST PUSH2 0x148 JUMP JUMPDEST PUSH1 0x40 MLOAD PUSH2 0x8B SWAP2 SWAP1 PUSH2 0x651 JUMP JUMPDEST PUSH2 0xC7 PUSH2 0xC2 CALLDATASIZE PUSH1 0x4 PUSH2 0x664 JUMP JUMPDEST PUSH2 0x1EA JUMP JUMPDEST STOP JUMPDEST PUSH2 0xF5 PUSH2 0xD7 CALLDATASIZE PUSH1 0x4 PUSH2 0x5F2 JUMP JUMPDEST PUSH1 0x0 SWAP1 DUP2 MSTORE PUSH1 0x20 DUP2 SWAP1 MSTORE PUSH1 0x40 SWAP1 KECCAK256 PUSH1 0x1 ADD SLOAD PUSH1 0x1 PUSH1 0x1 PUSH1 0xA0 SHL SUB AND SWAP1 JUMP JUMPDEST PUSH1 0x40 MLOAD PUSH1 0x1 PUSH1 0x1 PUSH1 0xA0 SHL SUB SWAP1 SWAP2 AND DUP2 MSTORE PUSH1 0x20 ADD PUSH2 0x8B JUMP JUMPDEST PUSH2 0xF5 PUSH2 0x11B CALLDATASIZE PUSH1 0x4 PUSH2 0x6DE JUMP JUMPDEST PUSH2 0x362 JUMP JUMPDEST PUSH1 0x0 DUP4 PUSH1 0x1 PUSH1 0x1 PUSH1 0xA0 SHL SUB AND PUSH2 0x136 DUP5 DUP5 PUSH2 0x362 JUMP JUMPDEST PUSH1 0x1 PUSH1 0x1 PUSH1 0xA0 SHL SUB AND EQ SWAP5 SWAP4 POP POP POP POP JUMP JUMPDEST PUSH1 0x0 DUP2 DUP2 MSTORE PUSH1 0x20 DUP2 SWAP1 MSTORE PUSH1 0x40 SWAP1 KECCAK256 DUP1 SLOAD PUSH1 0x60 SWAP2 SWAP1 PUSH2 0x165 SWAP1 PUSH2 0x725 JUMP JUMPDEST DUP1 PUSH1 0x1F ADD PUSH1 0x20 DUP1 SWAP2 DIV MUL PUSH1 0x20 ADD PUSH1 0x40 MLOAD SWAP1 DUP2 ADD PUSH1 0x40 MSTORE DUP1 SWAP3 SWAP2 SWAP1 DUP2 DUP2 MSTORE PUSH1 0x20 ADD DUP3 DUP1 SLOAD PUSH2 0x191 SWAP1 PUSH2 0x725 JUMP JUMPDEST DUP1 ISZERO PUSH2 0x1DE JUMPI DUP1 PUSH1 0x1F LT PUSH2 0x1B3 JUMPI PUSH2 0x100 DUP1 DUP4 SLOAD DIV MUL DUP4 MSTORE SWAP2 PUSH1 0x20 ADD SWAP2 PUSH2 0x1DE JUMP JUMPDEST DUP3 ADD SWAP2 SWAP1 PUSH1 0x0 MSTORE PUSH1 0x20 PUSH1 0x0 KECCAK256 SWAP1 JUMPDEST DUP2 SLOAD DUP2 MSTORE SWAP1 PUSH1 0x1 ADD SWAP1 PUSH1 0x20 ADD DUP1 DUP4 GT PUSH2 0x1C1 JUMPI DUP3 SWAP1 SUB PUSH1 0x1F AND DUP3 ADD SWAP2 JUMPDEST POP POP POP POP POP SWAP1 POP SWAP2 SWAP1 POP JUMP JUMPDEST PUSH2 0x1F5 CALLER DUP5 DUP4 PUSH2 0x120 JUMP JUMPDEST PUSH2 0x246 JUMPI PUSH1 0x40 MLOAD PUSH3 0x461BCD PUSH1 0xE5 SHL DUP2 MSTORE PUSH1 0x20 PUSH1 0x4 DUP3 ADD MSTORE PUSH1 0x1D PUSH1 0x24 DUP3 ADD MSTORE PUSH32 0x5369676E617475726520766572696669636174696F6E206661696C6564000000 PUSH1 0x44 DUP3 ADD MSTORE PUSH1 0x64 ADD JUMPDEST PUSH1 0x40 MLOAD DUP1 SWAP2 SUB SWAP1 REVERT JUMPDEST PUSH1 0x0 DUP4 DUP2 MSTORE PUSH1 0x20 DUP2 SWAP1 MSTORE PUSH1 0x40 SWAP1 KECCAK256 PUSH1 0x1 ADD SLOAD PUSH1 0x1 PUSH1 0x1 PUSH1 0xA0 SHL SUB AND ISZERO PUSH2 0x2AE JUMPI PUSH1 0x40 MLOAD PUSH3 0x461BCD PUSH1 0xE5 SHL DUP2 MSTORE PUSH1 0x20 PUSH1 0x4 DUP3 ADD MSTORE PUSH1 0x18 PUSH1 0x24 DUP3 ADD MSTORE PUSH32 0x496D61676520616C726561647920726567697374657265640000000000000000 PUSH1 0x44 DUP3 ADD MSTORE PUSH1 0x64 ADD PUSH2 0x23D JUMP JUMPDEST PUSH1 0x40 DUP1 MLOAD DUP1 DUP3 ADD DUP3 MSTORE DUP4 DUP2 MSTORE CALLER PUSH1 0x20 DUP1 DUP4 ADD SWAP2 SWAP1 SWAP2 MSTORE PUSH1 0x0 DUP7 DUP2 MSTORE SWAP1 DUP2 SWAP1 MSTORE SWAP2 SWAP1 SWAP2 KECCAK256 DUP2 MLOAD DUP2 SWAP1 PUSH2 0x2DF SWAP1 DUP3 PUSH2 0x7AE JUMP JUMPDEST POP PUSH1 0x20 SWAP2 SWAP1 SWAP2 ADD MLOAD PUSH1 0x1 SWAP1 SWAP2 ADD DUP1 SLOAD PUSH32 0xFFFFFFFFFFFFFFFFFFFFFFFF0000000000000000000000000000000000000000 AND PUSH1 0x1 PUSH1 0x1 PUSH1 0xA0 SHL SUB SWAP1 SWAP3 AND SWAP2 SWAP1 SWAP2 OR SWAP1 SSTORE PUSH1 0x40 MLOAD DUP4 SWAP1 PUSH32 0xDD83F6763B0A3F7FE47784C369E552CCE819EFEEC4E7C97B5E0629CE41F11288 SWAP1 PUSH2 0x355 SWAP1 DUP6 SWAP1 CALLER SWAP1 PUSH2 0x86E JUMP JUMPDEST PUSH1 0x40 MLOAD DUP1 SWAP2 SUB SWAP1 LOG2 POP POP POP JUMP JUMPDEST PUSH1 0x0 DUP1 PUSH2 0x3BC DUP5 PUSH1 0x40 MLOAD PUSH32 0x19457468657265756D205369676E6564204D6573736167653A0A333200000000 PUSH1 0x20 DUP3 ADD MSTORE PUSH1 0x3C DUP2 ADD DUP3 SWAP1 MSTORE PUSH1 0x0 SWAP1 PUSH1 0x5C ADD PUSH1 0x40 MLOAD PUSH1 0x20 DUP2 DUP4 SUB SUB DUP2 MSTORE SWAP1 PUSH1 0x40 MSTORE DUP1 MLOAD SWAP1 PUSH1 0x20 ADD KECCAK256 SWAP1 POP SWAP2 SWAP1 POP JUMP JUMPDEST SWAP1 POP PUSH2 0x3C8 DUP2 DUP5 PUSH2 0x3D2 JUMP JUMPDEST SWAP2 POP POP JUMPDEST SWAP3 SWAP2 POP POP JUMP JUMPDEST PUSH1 0x0 DUP1 PUSH1 0x0 DUP1 PUSH2 0x3E1 DUP6 PUSH2 0x451 JUMP JUMPDEST PUSH1 0x40 DUP1 MLOAD PUSH1 0x0 DUP2 MSTORE PUSH1 0x20 DUP2 ADD DUP1 DUP4 MSTORE DUP12 SWAP1 MSTORE PUSH1 0xFF DUP4 AND SWAP2 DUP2 ADD SWAP2 SWAP1 SWAP2 MSTORE PUSH1 0x60 DUP2 ADD DUP5 SWAP1 MSTORE PUSH1 0x80 DUP2 ADD DUP4 SWAP1 MSTORE SWAP3 SWAP6 POP SWAP1 SWAP4 POP SWAP2 POP PUSH1 0x1 SWAP1 PUSH1 0xA0 ADD PUSH1 0x20 PUSH1 0x40 MLOAD PUSH1 0x20 DUP2 SUB SWAP1 DUP1 DUP5 SUB SWAP1 DUP6 GAS STATICCALL ISZERO DUP1 ISZERO PUSH2 0x43C JUMPI RETURNDATASIZE PUSH1 0x0 DUP1 RETURNDATACOPY RETURNDATASIZE PUSH1 0x0 REVERT JUMPDEST POP POP PUSH1 0x40 MLOAD PUSH1 0x1F NOT ADD MLOAD SWAP8 SWAP7 POP POP POP POP POP POP POP JUMP JUMPDEST PUSH1 0x0 DUP1 PUSH1 0x0 DUP4 MLOAD PUSH1 0x41 EQ PUSH2 0x4A7 JUMPI PUSH1 0x40 MLOAD PUSH3 0x461BCD PUSH1 0xE5 SHL DUP2 MSTORE PUSH1 0x20 PUSH1 0x4 DUP3 ADD MSTORE PUSH1 0x18 PUSH1 0x24 DUP3 ADD MSTORE PUSH32 0x496E76616C6964207369676E6174757265206C656E6774680000000000000000 PUSH1 0x44 DUP3 ADD MSTORE PUSH1 0x64 ADD PUSH2 0x23D JUMP JUMPDEST POP POP POP PUSH1 0x20 DUP2 ADD MLOAD PUSH1 0x40 DUP3 ADD MLOAD PUSH1 0x60 DUP4 ADD MLOAD PUSH1 0x0 BYTE PUSH1 0x1B DUP2 LT ISZERO PUSH2 0x4D3 JUMPI PUSH2 0x4D0 PUSH1 0x1B DUP3 PUSH2 0x899 JUMP JUMPDEST SWAP1 POP JUMPDEST SWAP2 SWAP4 SWAP1 SWAP3 POP JUMP JUMPDEST PUSH4 0x4E487B71 PUSH1 0xE0 SHL PUSH1 0x0 MSTORE PUSH1 0x41 PUSH1 0x4 MSTORE PUSH1 0x24 PUSH1 0x0 REVERT JUMPDEST PUSH1 0x0 PUSH8 0xFFFFFFFFFFFFFFFF DUP1 DUP5 GT ISZERO PUSH2 0x50B JUMPI PUSH2 0x50B PUSH2 0x4DA JUMP JUMPDEST PUSH1 0x40 MLOAD PUSH1 0x1F DUP6 ADD PUSH1 0x1F NOT SWAP1 DUP2 AND PUSH1 0x3F ADD AND DUP2 ADD SWAP1 DUP3 DUP3 GT DUP2 DUP4 LT OR ISZERO PUSH2 0x533 JUMPI PUSH2 0x533 PUSH2 0x4DA JUMP JUMPDEST DUP2 PUSH1 0x40 MSTORE DUP1 SWAP4 POP DUP6 DUP2 MSTORE DUP7 DUP7 DUP7 ADD GT ISZERO PUSH2 0x54C JUMPI PUSH1 0x0 DUP1 REVERT JUMPDEST DUP6 DUP6 PUSH1 0x20 DUP4 ADD CALLDATACOPY PUSH1 0x0 PUSH1 0x20 DUP8 DUP4 ADD ADD MSTORE POP POP POP SWAP4 SWAP3 POP POP POP JUMP JUMPDEST PUSH1 0x0 DUP3 PUSH1 0x1F DUP4 ADD SLT PUSH2 0x577 JUMPI PUSH1 0x0 DUP1 REVERT JUMPDEST PUSH2 0x586 DUP4 DUP4 CALLDATALOAD PUSH1 0x20 DUP6 ADD PUSH2 0x4F0 JUMP JUMPDEST SWAP4 SWAP3 POP POP POP JUMP JUMPDEST PUSH1 0x0 DUP1 PUSH1 0x0 PUSH1 0x60 DUP5 DUP7 SUB SLT ISZERO PUSH2 0x5A2 JUMPI PUSH1 0x0 DUP1 REVERT JUMPDEST DUP4 CALLDATALOAD PUSH1 0x1 PUSH1 0x1 PUSH1 0xA0 SHL SUB DUP2 AND DUP2 EQ PUSH2 0x5B9 JUMPI PUSH1 0x0 DUP1 REVERT JUMPDEST SWAP3 POP PUSH1 0x20 DUP5 ADD CALLDATALOAD SWAP2 POP PUSH1 0x40 DUP5 ADD CALLDATALOAD PUSH8 0xFFFFFFFFFFFFFFFF DUP2 GT ISZERO PUSH2 0x5DC JUMPI PUSH1 0x0 DUP1 REVERT JUMPDEST PUSH2 0x5E8 DUP7 DUP3 DUP8 ADD PUSH2 0x566 JUMP JUMPDEST SWAP2 POP POP SWAP3 POP SWAP3 POP SWAP3 JUMP JUMPDEST PUSH1 0x0 PUSH1 0x20 DUP3 DUP5 SUB SLT ISZERO PUSH2 0x604 JUMPI PUSH1 0x0 DUP1 REVERT JUMPDEST POP CALLDATALOAD SWAP2 SWAP1 POP JUMP JUMPDEST PUSH1 0x0 DUP2 MLOAD DUP1 DUP5 MSTORE PUSH1 0x0 JUMPDEST DUP2 DUP2 LT ISZERO PUSH2 0x631 JUMPI PUSH1 0x20 DUP2 DUP6 ADD DUP2 ADD MLOAD DUP7 DUP4 ADD DUP3 ADD MSTORE ADD PUSH2 0x615 JUMP JUMPDEST POP PUSH1 0x0 PUSH1 0x20 DUP3 DUP7 ADD ADD MSTORE PUSH1 0x20 PUSH1 0x1F NOT PUSH1 0x1F DUP4 ADD AND DUP6 ADD ADD SWAP2 POP POP SWAP3 SWAP2 POP POP JUMP JUMPDEST PUSH1 0x20 DUP2 MSTORE PUSH1 0x0 PUSH2 0x586 PUSH1 0x20 DUP4 ADD DUP5 PUSH2 0x60B JUMP JUMPDEST PUSH1 0x0 DUP1 PUSH1 0x0 PUSH1 0x60 DUP5 DUP7 SUB SLT ISZERO PUSH2 0x679 JUMPI PUSH1 0x0 DUP1 REVERT JUMPDEST DUP4 CALLDATALOAD SWAP3 POP PUSH1 0x20 DUP5 ADD CALLDATALOAD PUSH8 0xFFFFFFFFFFFFFFFF DUP1 DUP3 GT ISZERO PUSH2 0x698 JUMPI PUSH1 0x0 DUP1 REVERT JUMPDEST DUP2 DUP7 ADD SWAP2 POP DUP7 PUSH1 0x1F DUP4 ADD SLT PUSH2 0x6AC JUMPI PUSH1 0x0 DUP1 REVERT JUMPDEST PUSH2 0x6BB DUP8 DUP4 CALLDATALOAD PUSH1 0x20 DUP6 ADD PUSH2 0x4F0 JUMP JUMPDEST SWAP4 POP PUSH1 0x40 DUP7 ADD CALLDATALOAD SWAP2 POP DUP1 DUP3 GT ISZERO PUSH2 0x6D1 JUMPI PUSH1 0x0 DUP1 REVERT JUMPDEST POP PUSH2 0x5E8 DUP7 DUP3 DUP8 ADD PUSH2 0x566 JUMP JUMPDEST PUSH1 0x0 DUP1 PUSH1 0x40 DUP4 DUP6 SUB SLT ISZERO PUSH2 0x6F1 JUMPI PUSH1 0x0 DUP1 REVERT JUMPDEST DUP3 CALLDATALOAD SWAP2 POP PUSH1 0x20 DUP4 ADD CALLDATALOAD PUSH8 0xFFFFFFFFFFFFFFFF DUP2 GT ISZERO PUSH2 0x70F JUMPI PUSH1 0x0 DUP1 REVERT JUMPDEST PUSH2 0x71B DUP6 DUP3 DUP7 ADD PUSH2 0x566 JUMP JUMPDEST SWAP2 POP POP SWAP3 POP SWAP3 SWAP1 POP JUMP JUMPDEST PUSH1 0x1 DUP2 DUP2 SHR SWAP1 DUP3 AND DUP1 PUSH2 0x739 JUMPI PUSH1 0x7F DUP3 AND SWAP2 POP JUMPDEST PUSH1 0x20 DUP3 LT DUP2 SUB PUSH2 0x759 JUMPI PUSH4 0x4E487B71 PUSH1 0xE0 SHL PUSH1 0x0 MSTORE PUSH1 0x22 PUSH1 0x4 MSTORE PUSH1 0x24 PUSH1 0x0 REVERT JUMPDEST POP SWAP2 SWAP1 POP JUMP JUMPDEST PUSH1 0x1F DUP3 GT ISZERO PUSH2 0x7A9 JUMPI PUSH1 0x0 DUP2 DUP2 MSTORE PUSH1 0x20 DUP2 KECCAK256 PUSH1 0x1F DUP6 ADD PUSH1 0x5 SHR DUP2 ADD PUSH1 0x20 DUP7 LT ISZERO PUSH2 0x786 JUMPI POP DUP1 JUMPDEST PUSH1 0x1F DUP6 ADD PUSH1 0x5 SHR DUP3 ADD SWAP2 POP JUMPDEST DUP2 DUP2 LT ISZERO PUSH2 0x7A5 JUMPI DUP3 DUP2 SSTORE PUSH1 0x1 ADD PUSH2 0x792 JUMP JUMPDEST POP POP POP JUMPDEST POP POP POP JUMP JUMPDEST DUP2 MLOAD PUSH8 0xFFFFFFFFFFFFFFFF DUP2 GT ISZERO PUSH2 0x7C8 JUMPI PUSH2 0x7C8 PUSH2 0x4DA JUMP JUMPDEST PUSH2 0x7DC DUP2 PUSH2 0x7D6 DUP5 SLOAD PUSH2 0x725 JUMP JUMPDEST DUP5 PUSH2 0x75F JUMP JUMPDEST PUSH1 0x20 DUP1 PUSH1 0x1F DUP4 GT PUSH1 0x1 DUP2 EQ PUSH2 0x811 JUMPI PUSH1 0x0 DUP5 ISZERO PUSH2 0x7F9 JUMPI POP DUP6 DUP4 ADD MLOAD JUMPDEST PUSH1 0x0 NOT PUSH1 0x3 DUP7 SWAP1 SHL SHR NOT AND PUSH1 0x1 DUP6 SWAP1 SHL OR DUP6 SSTORE PUSH2 0x7A5 JUMP JUMPDEST PUSH1 0x0 DUP6 DUP2 MSTORE PUSH1 0x20 DUP2 KECCAK256 PUSH1 0x1F NOT DUP7 AND SWAP2 JUMPDEST DUP3 DUP2 LT ISZERO PUSH2 0x840 JUMPI DUP9 DUP7 ADD MLOAD DUP3 SSTORE SWAP5 DUP5 ADD SWAP5 PUSH1 0x1 SWAP1 SWAP2 ADD SWAP1 DUP5 ADD PUSH2 0x821 JUMP JUMPDEST POP DUP6 DUP3 LT ISZERO PUSH2 0x85E JUMPI DUP8 DUP6 ADD MLOAD PUSH1 0x0 NOT PUSH1 0x3 DUP9 SWAP1 SHL PUSH1 0xF8 AND SHR NOT AND DUP2 SSTORE JUMPDEST POP POP POP POP POP PUSH1 0x1 SWAP1 DUP2 SHL ADD SWAP1 SSTORE POP JUMP JUMPDEST PUSH1 0x40 DUP2 MSTORE PUSH1 0x0 PUSH2 0x881 PUSH1 0x40 DUP4 ADD DUP6 PUSH2 0x60B JUMP JUMPDEST SWAP1 POP PUSH1 0x1 PUSH1 0x1 PUSH1 0xA0 SHL SUB DUP4 AND PUSH1 0x20 DUP4 ADD MSTORE SWAP4 SWAP3 POP POP POP JUMP JUMPDEST PUSH1 0xFF DUP2 DUP2 AND DUP4 DUP3 AND ADD SWAP1 DUP2 GT ISZERO PUSH2 0x3CC JUMPI PUSH4 0x4E487B71 PUSH1 0xE0 SHL PUSH1 0x0 MSTORE PUSH1 0x11 PUSH1 0x4 MSTORE PUSH1 0x24 PUSH1 0x0 REVERT INVALID LOG2 PUSH5 0x6970667358 0x22 SLT KECCAK256 SWAP9 KECCAK256 MLOAD DUP16 0xED PUSH6 0xC5B519070F05 0xE3 0xDD SWAP3 0xEE DUP7 SUB 0xDC PUSH29 0x12BCB6694BD21996477B733864736F6C63430008110033000000000000 "
    },
    "gasEstimates": {
      "creation": {
        "codeDepositCost": "458800",
        "executionCost": "493",
        "totalCost": "459293"
      },
      "external": {
        "getIPFSHash(bytes32)": "infinite",
        "getImageRegistrar(bytes32)": "2508",
        "recoverSigner(bytes32,bytes)": "infinite",
        "registerImage(bytes32,string,bytes)": "infinite",
        "verify(address,bytes32,bytes)": "infinite"
      },
      "internal": {
        "getEthSignedMessageHash(bytes32)": "infinite",
        "recover(bytes32,bytes memory)": "infinite",
        "splitSignature(bytes memory)": "infinite"
      }
    },
    "methodIdentifiers": {
      "getIPFSHash(bytes32)": "2ed5ef14",
      "getImageRegistrar(bytes32)": "9523597d",
      "recoverSigner(bytes32,bytes)": "97aba7f9",
      "registerImage(bytes32,string,bytes)": "9241ef21",
      "verify(address,bytes32,bytes)": "1a86b550"
    }
  },
  "storageLayout": {
    "storage": [
      {
        "astId": 11,
        "contract": "imageRegistrary.sol:ImageRegistry",
        "label": "imageRegistry",
        "offset": 0,
        "slot": "0",
        "type": "t_mapping(t_bytes32,t_struct(ImageData)6_storage)"
      }
    ],
    "types": {
      "t_address": {
        "encoding": "inplace",
        "label": "address",
        "numberOfBytes": "20"
      },
      "t_bytes32": {
        "encoding": "inplace",
        "label": "bytes32",
        "numberOfBytes": "32"
      },
      "t_mapping(t_bytes32,t_struct(ImageData)6_storage)": {
        "encoding": "mapping",
        "key": "t_bytes32",
        "label": "mapping(bytes32 => struct ImageRegistry.ImageData)",
        "numberOfBytes": "32",
        "value": "t_struct(ImageData)6_storage"
      },
      "t_string_storage": {
        "encoding": "bytes",
        "label": "string",
        "numberOfBytes": "32"
      },
      "t_struct(ImageData)6_storage": {
        "encoding": "inplace",
        "label": "struct ImageRegistry.ImageData",
        "members": [
          {
            "astId": 3,
            "contract": "imageRegistrary.sol:ImageRegistry",
            "label": "ipfsHash",
            "offset": 0,
            "slot": "0",
            "type": "t_string_storage"
          },
          {
            "astId": 5,
            "contract": "imageRegistrary.sol:ImageRegistry",
            "label": "registrar",
            "offset": 0,
            "slot": "1",
            "type": "t_address"
          }
        ],
        "numberOfBytes": "64"
      }
    }
  },
  "userdoc": {
    "kind": "user",
    "methods": {},
    "version": 1
  }
}